{
  "contractName": "Visit",
  "abi": [
    {
      "constant": true,
      "inputs": [],
      "name": "getTotalCount",
      "outputs": [
        {
          "name": "",
          "type": "uint256"
        }
      ],
      "payable": false,
      "stateMutability": "view",
      "type": "function"
    },
    {
      "constant": true,
      "inputs": [
        {
          "name": "sender",
          "type": "address"
        }
      ],
      "name": "getMemberInfo",
      "outputs": [
        {
          "name": "",
          "type": "uint256"
        }
      ],
      "payable": false,
      "stateMutability": "view",
      "type": "function"
    },
    {
      "constant": false,
      "inputs": [],
      "name": "visit",
      "outputs": [],
      "payable": false,
      "stateMutability": "nonpayable",
      "type": "function"
    }
  ],
  "bytecode": "0x608060405234801561001057600080fd5b5061039c806100206000396000f300608060405260043610610057576000357c0100000000000000000000000000000000000000000000000000000000900463ffffffff1680630cc4330c1461005c57806356d42bb3146100735780635f1231ea1461009e575b600080fd5b34801561006857600080fd5b506100716100db565b005b34801561007f57600080fd5b50610088610243565b604051610095919061031d565b60405180910390f35b3480156100aa57600080fd5b506100c560048036036100c091908101906102e5565b610250565b6040516100d2919061031d565b60405180910390f35b6100e36102bd565b60008060003373ffffffffffffffffffffffffffffffffffffffff1673ffffffffffffffffffffffffffffffffffffffff1681526020019081526020016000206000015411156101825760016000803373ffffffffffffffffffffffffffffffffffffffff1673ffffffffffffffffffffffffffffffffffffffff16815260200190815260200160002060000160008282540192505081905550610240565b60013390806001815401808255809150509060018203906000526020600020016000909192909190916101000a81548173ffffffffffffffffffffffffffffffffffffffff021916908373ffffffffffffffffffffffffffffffffffffffff160217905550506001816000018181525050806000803373ffffffffffffffffffffffffffffffffffffffff1673ffffffffffffffffffffffffffffffffffffffff168152602001908152602001600020600082015181600001559050505b50565b6000600180549050905090565b600061025a6102bd565b6000808473ffffffffffffffffffffffffffffffffffffffff1673ffffffffffffffffffffffffffffffffffffffff1681526020019081526020016000206020604051908101604052908160008201548152505090508060000151915050919050565b602060405190810160405280600081525090565b60006102dd8235610342565b905092915050565b6000602082840312156102f757600080fd5b6000610305848285016102d1565b91505092915050565b61031781610338565b82525050565b6000602082019050610332600083018461030e565b92915050565b6000819050919050565b600073ffffffffffffffffffffffffffffffffffffffff821690509190505600a265627a7a72305820b24a2810cb44837fc4bba1dd779c6a3cf91d7aff016d5e444b7ba38b5898c3e46c6578706572696d656e74616cf50037",
  "source": "pragma solidity ^0.4.24;\r\npragma experimental ABIEncoderV2;\r\n\r\ncontract Visit {\r\n    struct Member{\r\n        uint count;\r\n    }\r\n    mapping(address => Member) member_map;\r\n    address[] members;\r\n\r\n    function getTotalCount() public view returns (uint){\r\n        return members.length;\r\n    }\r\n\r\n    function getMemberInfo(address sender) public view returns (uint){\r\n        Member memory m = member_map[sender];\r\n        return m.count;\r\n    }\r\n\r\n    function visit() public{\r\n        if (member_map[msg.sender].count > 0){ //맴버맵에 이 키[]가 방문한적이 있다면 \r\n        member_map[msg.sender].count += 1;\r\n        } else {\r\n        members.push(msg.sender);\r\n        Member memory m;\r\n        m.count = 1;\r\n        member_map[msg.sender] = m;\r\n        } \r\n    }\r\n}\r\n\r\n\r\n\r\n\r\n",
  "sourcePath": "C:\\dev\\klaytn\\visitor\\contracts\\Visit.sol",
  "compiler": {
    "name": "solc",
    "version": "0.4.25+commit.59dbf8f1.Emscripten.clang"
  },
  "schemaVersion": "2.0.2",
  "updatedAt": "2019-08-07T04:24:02.577Z"
}